:020000040800F2
:10000000884B00202D02000831020008330200084E
:10001000350200083702000839020008000000001D
:10002000000000000000000000000000890100083E
:100030003D02000800000000CD0100083514000852
:10004000430200084302000843020008430200087C
:10005000430200084302000843020008430200086C
:10006000430200084302000843020008430200085C
:10007000430200084302000843020008430200084C
:10008000430200084302000843020008430200083C
:10009000430200084302000843020008430200082C
:1000A000430200084302000843020008430200081C
:1000B000430200084302000843020008430200080C
:1000C00043020008430200084302000843020008FC
:1000D00043020008C7170008430200084302000853
:1000E00043020008430200084302000800F002F83F
:1000F00000F03AF80AA090E8000C82448344AAF188
:100100000107DA4501D100F02FF8AFF2090EBAE885
:100110000F0013F0010F18BFFB1A43F0010318473B
:10012000CC1E0000EC1E0000103A24BF78C878C135
:10013000FAD8520724BF30C830C144BF04680C60ED
:10014000704700000023002400250026103A28BF35
:1001500078C1FBD8520728BF30C148BF0B60704739
:100160001FB51FBD10B510BD01F069FC1146FFF7AA
:10017000F7FF01F0C1FA01F087FC03B4FFF7F2FFCB
:1001800003BC01F089FA0000204B19680868B0E848
:10019000F00F80F30988BFF36F8F4FF0000080F3FA
:1001A00011884EF00D0E70470000000006480068F0
:1001B000006880F3088862B661B6BFF34F8FBFF363
:1001C0006F8F00DF00BF00BF08ED00E0EFF3098094
:1001D000BFF36F8F0D4B1A6820E9F00F106008B560
:1001E0004FF0BF0080F3118800F0CCFB4FF000000F
:1001F00080F31188BDE8084019680868B0E8F00F7E
:1002000080F30988BFF36F8F704700BF00000020A4
:10021000EFF311804FF0BF0181F31188704780F335
:1002200011887047EFF305807047000008480047C9
:10023000FEE7FEE7FEE7FEE7FEE7FEE7FEE7FEE796
:10024000FEE7FEE703480449044A054B70470000F7
:10025000ED00000888450020884B002088470020DA
:100260008847002000F1080141604FF0FF318160B4
:1002700000F10801C16001610021016070470021A7
:100280000161704742684A6093688B609368596067
:100290009160086103685B1C0360704710B50246FB
:1002A0000B685C1C0CB9106907E002F1080000E063
:1002B0004068446824689C42FAD944684C604C68A1
:1002C000A160886041600A611468641C146010BDFC
:1002D00001460A69D1E901309860D1E9010358600B
:1002E0005068884201D18868506000200861106819
:1002F000401E10601068704710B5002407E004EB42
:100300008401F74A02EB8100FFF7ACFF641C052C67
:10031000F5D3F448FFF7A6FFF348FFF7A3FFF34830
:10032000FFF7A0FFF248FFF79DFFF248FFF79AFFA3
:10033000EC48F1490860EC48F049086010BD2DE92F
:10034000F04704460F4616469946DDF82080002502
:1003500007E0795D04F134004155785D00B902E0B1
:100360006D1C102DF5D300BF002143200155052E33
:1003700000D30426E662201DFFF781FF04F1180078
:10038000FFF77DFF2461C6F10500A06164620020D3
:10039000606484F84800BDE8F0872DE9F041064626
:1003A0000F461FB9B00000F076FF00E03846054662
:1003B00055B14C2000F06FFF04460CB1256304E0FA
:1003C000284600F0BBFF00E000242046BDE8F08195
:1003D0002DE9FF4F81B0804615469946DDE90E7A3A
:1003E00028461099FFF7D9FF0446002C4FD0681E0D
:1003F000216B01EB800B2BF0070B00953A46204652
:10040000119B0299FFF79BFF4A464146584600F070
:10041000C3FF2060BAF1000F01D0CAF8004000F01D
:10042000EFFFB7480068401CB5490860B548006850
:1004300040B9B44804600846006801280CD1FFF7B1
:100440005BFF09E0B048006830B9AE480068C06A98
:10045000B84201D8AB480460AC480068401CAB49C6
:10046000086094F82C1001208840A94909680843C5
:10047000A7490860E16A01EB8101994A02EB81001A
:10048000211DFFF7FFFE012600F0C7FF01E04FF03E
:10049000FF36012E09D19C48006830B199480068A8
:1004A000C06AB84201D200F0A1FF304605B0BDE8F5
:1004B000F08F91490968096809B9012100E000211C
:1004C00021B14FF0FF31934A116006E08A49096873
:1004D000C968C8688F4A41681160704770B50546A1
:1004E00000F08EFF15B98748006800E028460446F2
:1004F000201DFFF7EDFE78B9E06A00EB8000784937
:1005000051F8200040B994F82C100120884080490F
:10051000096881437E480160A06A18B104F118009F
:10052000FFF7D6FE211D7248FFF7ACFE7A4800683F
:10053000401C7949086075480068401C7349086090
:1005400000F06BFF7048006860B16E48006884423C
:1005500002D100F04BFF05E000F052FFFFF7A9FFCA
:1005600000F05BFF70BD2DE9F04100276B4800688B
:10057000002865D16A480068401C6949086008463F
:1005800006688EB95C48D0F800805C4800685A491B
:1005900008605A48C0F8008062480068401C614901
:1005A0000860FFF786FF00BF5A48006886423BD3C9
:1005B00000BF51480068006808B9012000E0002031
:1005C00020B14FF0FF30534908602CE04A480068E2
:1005D000C068C4686568AE4202D24E48056022E039
:1005E000201DFFF775FEA06A18B104F11800FFF78F
:1005F0006FFE94F82C100120884045490968084393
:1006000043490860E16A01EB8101354A02EB810050
:10061000211DFFF737FE3B49E06A0968C96A884235
:10062000C7D30127C5E700BF36480068C06A00EBA2
:1006300080002B4951F82000012806D9012704E049
:1006400039480068401C384908603848006800B1E3
:1006500001273846BDE8F08170B5002500F0D0FED6
:100660002E480068401E2D49086008460068002892
:1006700074D123480068002870D024E01B48C0686B
:10068000C46804F11800FFF723FE201DFFF720FEC9
:1006900094F82C10012088401D49096808431C4922
:1006A0000860E16A01EB81010D4A02EB8100211D26
:1006B000FFF7E8FD1349E06A0968C96A884202D376
:1006C00001201A4908600948006808B9012000E0C3
:1006D00000200028D2D01448006800B133E036E092
:1006E0005C000020C0000020D4000020E8000020B2
:1006F000FC00002010010020040000200800002061
:1007000010000020000000201C0000202C00002011
:1007100018000020300000200C00002034000020D1
:1007200014000020280000202000002024000020C9
:10073000FFF719FF10B10120FE490860FE4800686C
:10074000401EFD490860FC4800680028F0D1F948C7
:100750000068012802D1012500F048FE00F05DFE8E
:10076000284670BD10B50446F44800684460F4485B
:100770000068844207D2F1480168091DF148006809
:10078000FFF78CFD0CE0ED480168091DEE4800689C
:10079000FFF784FDED480068844201D2EB48046015
:1007A00010BDEB480068401CE949086070472DE91E
:1007B000F047044688464FF00009FFF7F2FFE04893
:1007C0000768206800EB08052068B84207D9206850
:1007D000A8420BD9BD4209D94FF0010906E02068B3
:1007E000A84201D8BD4201D94FF001092560B9F1F5
:1007F000000F13D0D1480068001DFFF769FD50B904
:10080000CE48006890F82C1001208840D149096832
:100810008143D04801602846FFF7A4FFFFF71CFF83
:1008200006460EB900F0E2FDBDE8F08770B504465B
:100830000026DCB1FFF7B5FFC14800680519BF48C5
:100840000068001DFFF744FD50B9BC48006890F8EF
:100850002C1001208840BF4909688143BD480160D0
:100860002846FFF77FFFFFF7F7FE06460EB900F0B8
:10087000BDFD70BD70B5044600F0C2FD14B9AF48AF
:10088000006800E020460646F56A00F0C6FD2846EE
:1008900070BD2DE9F0410446FFF7BAFC064614B9D5
:1008A000A648006800E020460746FD6A3046FFF78C
:1008B000B6FC2846BDE8F0812DE9F04780460D469C
:1008C0004FF00009052D00D3042500F099FDB8F183
:1008D000000F02D19948006800E040460446E66AED
:1008E000AE424BD0B5420BD99448006884420DD03B
:1008F00092480068C06AA84208D84FF0010905E094
:100900008E480068844201D14FF00109E76AE56230
:10091000A06900F0004010B9C5F10500A06107EB27
:1009200087018D4A02EB81016069884201D1012073
:1009300000E00020E0B1201DFFF7CAFC30B9012023
:10094000B8408449096881438248016094F82C10BA
:10095000012088407F49096808437E490860E16AB0
:1009600001EB81017C4A02EB8100211DFFF78AFC2B
:10097000B9F1010F01D100F039FD00BF00F04DFDCC
:10098000BDE8F0877248006818B101206949086025
:100990001DE00020674908606E480068B0FA80F0EA
:1009A000C0F11F0101EB81026B4B03EB8200426837
:1009B0005268426000F108024368934202D14268E3
:1009C000526842604268D2685C4B1A6000BF704750
:1009D00070B5054600F014FD15B95848006800E0F0
:1009E00028460446201DFFF773FC78B9E06A00EB47
:1009F0008000594951F8200040B994F82C1001208A
:100A0000884054490968814352480160A06A18B17E
:100A100004F11800FFF75CFC211D5048FFF732FC81
:100A200000F0FBFC45480068844212D14C48006845
:100A300010B100F0DBFC15E048480068494909683E
:100A4000884203D100203D4908600BE0FFF79AFF80
:100A500008E04348006828B100F0D2FCFFF729FD08
:100A600000F0DBFC70BD10B5014600200A463B4C8F
:100A70005369A34201D1012300E0002373B13A4C32
:100A8000936AA34201D1012300E0002333B9936AA2
:100A90000BB9012300E0002303B1012010BD70B5A4
:100AA00005462C464CB325480068844225D000F00A
:100AB000A7FC2046FFF7D7FF01281CD1201DFFF718
:100AC00007FC94F82C10012088402249096808434B
:100AD00020490860E16A01EB81011F4A02EB8100B5
:100AE000211DFFF7CFFB1549E06A0968C96A8842F2
:100AF00001D300F07BFC00F090FC70BD2DE9F041CB
:100B0000054600262C46FFF783FB07462046FFF7E5
:100B1000AAFF012842D10E48006850B90749E06A8F
:100B20000968C96A884200D30126201DFFF7D0FB5F
:100B30001CE02EE024000020200000200000002007
:100B400014000020080000200400002030000020D5
:100B500034000020180000205C000020100100205C
:100B60001C00002010000020E800002094F82C1049
:100B700001208840FE4909680843FD490860E16A90
:100B800001EB8101FB4A02EB8100211DFFF77AFB9B
:100B900004E004F11801F848FFF774FB3846FFF74A
:100BA0003EFB3046BDE8F08110B50446206B00F0F6
:100BB000C5FB204600F0C2FB10BD70B523E0FFF777
:100BC000F0FDEE48006808B9012000E0002005466D
:100BD000FFF742FDBDB900F013FCE848C068C468E7
:100BE000201DFFF775FBE6480068401EE4490860D9
:100BF000E4480068401EE349086000F00EFC20460F
:100C0000FFF7D2FF00BFDF4800680028D7D170BDD2
:100C100000BFFFF7D2FFD74800680128F9D900F0DC
:100C2000E5FBF6E71FB50020009001900290034617
:100C30008022D5A10390D648FFF7CAFB0446012CB9
:100C40000CD1FFF7E5FAA01ED24908600120D24975
:100C500008600020D149086000F0B2FB1FBD10B54C
:100C6000FFF7D6FA0020CC49086000F0BEFB10BDAB
:100C7000CA49086870470021C84A10687047C048D0
:100C80000068704770B506460C46C54801681831C3
:100C90003046FFF703FBC2480068001DFFF718FB52
:100CA00050B9BF48006890F82C1001208840B04926
:100CB00009688143AE480160601C30B9B8480168DA
:100CC000091DB848FFF7DEFA05E0B44800680519C9
:100CD0002846FFF747FD70BD2DE9F04107460D4658
:100CE000144645F00040AE4909688861AC48016887
:100CF00018313846FFF7C6FAA9480068001DFFF70B
:100D0000E7FA50B9A648006890F82C1001208840F6
:100D100097490968814396480160601C30B9A04832
:100D20000168091D9F48FFF7ADFA05E09B48006880
:100D300006193046FFF716FDBDE8F08170B506468E
:100D4000F068C46804F11800FFF7C2FA964800681A
:100D5000A8B9201DFFF7BCFA94F82C100120884098
:100D600083490968084382490860E16A01EB81010F
:100D7000804A02EB8100211DFFF784FA04E004F1B0
:100D800018017D48FFF77EFA8549E06A0968C96A5B
:100D9000884204D9012501208449086000E000252B
:100DA000284670BD2DE9F04105460F4647F000404A
:100DB0002860EC682846FFF78BFA201DFFF788FAB9
:100DC00094F82C1001208840694909680843684953
:100DD0000860E16A01EB8101664A02EB8100211D96
:100DE000FFF750FA6E49E06A0968C96A884204D977
:100DF000012601206D49086000E000263046BDE86C
:100E0000F0816B4909680160644909684160704775
:100E100070B504460D4600F0F3FA60480268286891
:100E2000401C08B9002619E0614920680968884219
:100E300004D06068904201D801260FE06068101A63
:100E40002968884209D228686168511A401A2860C6
:100E50002046FFF7D6FF002600E0012600F0DDFA6D
:100E6000304670BD01205149086070474C490968FF
:100E700088694B490968C96AC1F10501484A126885
:100E8000916170472DE9F04106460C4600F0B8FA32
:100E900043480068406C38BB01204149096881F82B
:100EA00048000CB33E480068001DFFF711FA50B926
:100EB0003B48006890F82C10012088402C490968B4
:100EC00081432B480160601C30B935480168091D19
:100ED0003448FFF7D7F905E030480068071938466D
:100EE000FFF740FC00F082FA00F097FA00F088FA71
:100EF0002B480068456C65B126B100202849096877
:100F0000486406E02649096801F14400496C491E1D
:100F1000016000202249096881F8480000F07DFA4C
:100F20002846BDE8F0812DE9F0470746884615467A
:100F30001C4600F065FA1A48006890F8480002283C
:100F400054D01749096801F14400496CB943016064
:100F500001201349096881F8480044B1104800682D
:100F6000001DFFF7B5F928BB0D48006823E03DE000
:100F7000180000205C000020E8000020FC00002099
:100F8000100000200C00002049444C4500000000E7
:100F9000110C0008300000201C000020140000206C
:100FA0000000002010010020340000202400002058
:100FB0002800002008E090F82C1001208840A44967
:100FC00009688143A2480160601C30B9A1480168EA
:100FD000091DA148FFF756F906E0A048006800EB9C
:100FE00004094846FFF7BEFB00F000FA00F015FACE
:100FF00000F006FA1DB197480068406C28609548DB
:10100000006890F84800012801D1002608E09149C5
:10101000096801F14400496C21EA080101600126D8
:1010200000208C49096881F8480000F0F6F9304644
:10103000BDE8F0872DE9F04781460D4616461F466C
:101040004FF0010A4C4600F0DBF90FB1606C3860DC
:1010500094F84880022084F84800052E17D2DFE873
:1010600006F01503070B0D00606C284360640EE06A
:10107000606C401C60640AE0656408E0B8F1020F2F
:1010800001D0656401E04FF0000A00E000BF00BF3E
:10109000B8F1010F1CD1201DFFF71AF994F82C109C
:1010A000012088406A490968084369490860E16A83
:1010B00001EB81016A4A02EB8100211DFFF7E2F892
:1010C0006449E06A0968C96A884201D900F08EF96A
:1010D00000F0A3F95046BDE8F0872DE9F84F8146AE
:1010E0000D4616461F46DDF828A04FF0010B4C4672
:1010F000FFF78EF800900FB1606C386094F848806C
:10110000022084F84800052E17D2DFE806F0150308
:10111000070B0D00606C284360640EE0606C401C9F
:1011200060640AE0656408E0B8F1020F01D065640C
:1011300001E04FF0000B00E000BF00BFB8F1010F6D
:1011400029D148480068A8B9201DFFF7C1F894F8D4
:101150002C10012088403E49096808433C4908603A
:10116000E16A01EB81013E4A02EB8100211DFFF79C
:1011700089F804E004F118013B48FFF783F835498A
:10118000E06A0968C96A884205D9BAF1000F02D03D
:101190000120CAF800000098FFF741F85846BDE862
:1011A000F88F2DE9F04105460E462C46FFF730F842
:1011B000804694F84870022084F84800606C401C17
:1011C0006064012F26D127480068A8B9201DFFF7C9
:1011D0007FF894F82C10012088401D4909680843C5
:1011E0001B490860E16A01EB81011D4A02EB8100A5
:1011F000211DFFF747F804E004F118011A48FFF732
:1012000041F81449E06A0968C96A884202D90EB1F6
:10121000012030604046FFF702F8BDE8F08170B56C
:101220000446264616B90B48006800E030460646DC
:1012300000F0E6F896F84800022804D1002086F86D
:101240004800012500E0002500F0E7F8284670BDC1
:1012500018000020000000201001002014000020D1
:101260005C00002034000020E8000020434A22F007
:101270000700434A10600022414B5A6044F2F832A2
:10128000404B5A6000221A60014644F2F8324A602C
:101290001A460A6070472DE9F04104464FF00008F5
:1012A000FFF77FFA3848006820B9FFF7DFFF012019
:1012B0003549086044B1083404F0070020B104F057
:1012C0000700C0F108000444002C32D044F2F8308A
:1012D00084422ED22A4F3846056801E02F462D68F9
:1012E0006868A04202D228680028F7D125488542C4
:1012F0001FD0386800F10808286838606868001B4B
:10130000102810D92E196868001B70606C60716815
:101310001B4800E00068026852688A42FAD30268FB
:101320003260066000BF194968680968081A1749E1
:101330000860FFF791F94046BDE8F08170B50646B8
:101340003546B6B1083D2C46FFF72BFA61680C48CC
:1013500000E00068026852688A42FAD3026822609C
:1013600004600A4960680968084408490860FFF792
:1013700073F970BD05480068704770472C01002064
:1013800038000020400000204C00002048000020D1
:10139000FEF73EFF00BFFEE7001F4FF080730360C3
:1013A000001F0160001F2B4B0360143802602038BF
:1013B000704729484FF0E0214861072008617047D5
:1013C00010B52648006840F47F00244908600846AC
:1013D000006840F07F400860FFF7EBFF00202049E5
:1013E0000860FEF7E3FE002010BD70474FF080500C
:1013F0001A491C390860BFF34F8FBFF36F8F7047D6
:1014000010B5FEF705FF16480068401C1449086037
:10141000BFF34F8FBFF36F8F10BD10B5104800683A
:10142000401E0F4908600846006810B90020FEF70A
:10143000F6FE10BD10B5FEF7EBFEFFF794F820B1F5
:101440004FF0805005491C3908600020FEF7E7FE88
:1014500010BD0000911300083F19010020ED00E0CD
:10146000500000205648806940F0040054498861CB
:101470000846806940F0080088610846806940F0AD
:10148000010088614F4800684FF2F00188434D49E0
:1014900008600846006843F2300108434949086083
:1014A00048480C30006840F00A0046490C3108609A
:1014B000454800684FF20F018843434908600846D9
:1014C000006843F2030108433F4908603E48083082
:1014D000006840F009003C49083108603B4840681A
:1014E00040F000703949486037481030006840F4D7
:1014F00000603549103108600846006840F480708B
:10150000086030481430006840F002002D49143162
:1015100008600846006840F008000860704700F066
:10152000010141B128490C31096841F40061264AA2
:101530000C32116007E024491031096841F4006160
:10154000214A1032116000F0020141B11E490C31F4
:10155000096841F480711C4A0C32116007E01A4995
:101560001031096841F48071174A1032116000F09F
:10157000040141B113491031096841F00201114AD7
:101580001032116007E00F491431096841F002017F
:101590000C4A1432116000F0080141B109491031C0
:1015A000096841F00801074A1032116007E0054957
:1015B0001431096841F00801024A14321160704781
:1015C00000100240000C01400408014000000140EE
:1015D0002DE9F05F05460E46300100F0A7FB81467D
:1015E000354905FB01F000F0A1FB8246494600F0B9
:1015F000BBFA0746384600F079FB84B2204600F07B
:1016000095FB8346394600F071FC82464FF08341DA
:1016100000F0A0FB814600F069FB80464FF6FF70AA
:1016200000EA041404EB080084B22448806940F006
:101630000400224988610846806940F4804088613E
:101640001F48006820F47F601D4908600846006854
:1016500040F40B6008601948C06840F480401749A6
:10166000C8600846C06820F48040C86015480480FF
:10167000001D008842F20C0108431249091D088030
:101680000846008840F4807008800846008840F0D2
:1016900020000880BDE8F09F014600BF704700BFF2
:1016A000084A083A128802F04002002AF8D0C2B272
:1016B000044B1B1F1A80704740420F00001002406D
:1016C000040801400838014010B50024092000F04A
:1016D0008FF804464FF000600C4908600C48091D63
:1016E00008604FF0E020006940F004004FF0E02176
:1016F0000861FFF7B7FE10BD10B5FFF7E5FF012049
:1017000000F05DF9FFF78EFA002010BD08ED00E053
:101710000003FA052DE9F0410C46002100260F25B3
:10172000FBB12F4F3F6807F4E067C7F5E067390A60
:10173000C1F10406CD4004FA06F102EA0507394377
:101740000901284F395400F01F0C012707FA0CF744
:101750004FEA601C4FEA8C0C0CF1E02CCCF80071C5
:101760000AE000F01F0C012707FA0CF7DFF878C039
:101770004FEA60184CF82870BDE8F08130B5024699
:101780000B46002400210025C3F3421503F01F017E
:10179000012000FA01F1012D02D19089014006E0FB
:1017A000022D02D1108A014001E0908A01401C12F2
:1017B000012000FA04F41088044011B10CB101209A
:1017C00030BD0020FCE700B540F227710748FFF765
:1017D000D5FF20B940F225510448FFF7CFFF00BDE7
:1017E0000CED00E000E400E080E100E000380140A2
:1017F0000146002200204F4B1861D8601420586128
:1018000000209861D8611846006840F00100186017
:1018100018464068484B1840464B586018460068C8
:10182000464B1840434B18601846006820F480204F
:1018300018601846406820F4FE0058600020986048
:101840001846006840F48030186000BF39480068CE
:10185000400C0028FAD04FF48060364B5860881E48
:10186000C1B21846406840EA814058601846406856
:1018700040F4803058603248006840F03200304B0D
:1018800018602C48006840F080702A4B186000BF38
:1018900028480068400E0028FAD02648406840F0EA
:1018A0000200244B586005E022484068C0F38702DC
:1018B00002F00302022AF7D1881CC006000E70470E
:1018C000002100BF00E0491C8142FCD3704710B5E5
:1018D000002400BF19E00120FFF721FE1948FFF79F
:1018E000EFFF0220FFF71BFE1648FFF7E9FF042079
:1018F000FFF715FE1348FFF7E3FF0820FFF70FFE81
:101900001048FFF7DDFF601CC4B2042CE3DB0024A9
:101910000DE00F20FFF703FE0A48FFF7D1FF00207C
:10192000FFF7FDFD0748FFF7CBFF601CC4B2032C97
:10193000EFDB10BD001002400000FFF8FFFFF6FED5
:1019400000200240A0BB0D0010B50446FEF729FFA1
:10195000042C0BD20120A040C0B231490978484084
:101960002F49087008460078FFF7D9FDFEF774FE8E
:1019700010BD08B5FFF744FD2A4805680068401C03
:1019800028490860FFF749FD40F24D1105FB01F0C1
:1019900000F24D1400BF6408FFF76AF9009000BF21
:1019A00021466846FEF703FF2846FFF7CDFF214694
:1019B0006846FEF7FCFE2846FFF7C6FFF0E77FB556
:1019C000044600250BE00020CDE9004002900346CC
:1019D000802215A103901648FEF7FAFC6D1C042D19
:1019E000F1DB7FBD70B504460D46FEF7DAFE042C30
:1019F00012D20120A0400A490978814308480170A9
:101A000005FA04F0C0B20649097808430449087091
:101A100008460078FFF783FDFEF71EFE70BD00004C
:101A200058000020540000204C454478000000007D
:101A300073190008704770477047704770477546C4
:101A400000F02CF8AE4605006946534620F007002A
:101A5000854618B020B5FEF7F5FBBDE820404FF0F5
:101A600000064FF000074FF000084FF0000B21F088
:101A70000701AC46ACE8C009ACE8C009ACE8C00955
:101A8000ACE8C0098D46704710B50446AFF300803E
:101A90002046BDE81040FEF770BB000000487047CC
:101AA0002445002090EA010F48BF81F0004100F179
:101AB0002E82421A3CBF801A89184FEAD0524FF04A
:101AC0007F4C1CEA410FA2EBD15318BF9CEA026F76
:101AD00000F03B804FF0004C4CEA00204CEA012122
:101AE00021FA03FC10EB0C0C1ED202F1FF325FEA6C
:101AF0001C2040EBC25038BF70471CF07F0F4FEAEC
:101B0000400C18BFBCF17F4F38BF7047C3F12003B2
:101B1000994008BF20F00100BCF17F4F38BF7047EB
:101B2000A0F1C04000F0DDB94FEA3C00000A40EBF4
:101B3000C25028BF1CF0FF0F4FEA400CE6D018BF80
:101B4000BCF17F4F38BF7047EAE79CEA026F05D0CF
:101B500010EA5C0F08BF00F00040704710B500F0BD
:101B60007AF900BF64FBBE3E4FF47F0C1CEAD01232
:101B70001EBF1CEAD11392EA0C0F93EA0C0F00F07F
:101B8000858090EA010F48BF42F4807240F4000C57
:101B900041F400002CF07F4120F07F4000B58142ED
:101BA000A2EB03020FF2081CACEB504EC0F1000098
:101BB0009EF800E04FEA4E0E00FB0EFC38BF4900D5
:101BC0004FEA2C1C02F5FA020CFB0EF34FEACE1E74
:101BD0004FEA112C4FEAC1210EEB635E42EB224229
:101BE0000EFB0CFC4FEA1C5300FB03114FEA112CB7
:101BF0004FEA01310EFB0CFC4FEADC4C00FB0C11F0
:101C0000C14228BF09184CEB03335DF804EB10EB1D
:101C1000410143EBC250B2F57C0F38BF704729D564
:101C200012F0F00F1CBF00F1C04000F00040704700
:101C3000008182838485868788898B8C8D8E8F91A5
:101C40009293959697999A9C9D9FA0A2A3A5A7A8C9
:101C5000AAACAEB0B2B3B5B7B9BCBEC0C2C5C7C9F5
:101C6000CCCED1D4D7D9DCDFE2E6E9ECF0F3F7FA59
:101C7000FE0000004FEA400C0CF1807CBCF17E4F6E
:101C800028BF7047B0F1C04000F02BB990EA010FB7
:101C90000CEAD11348BF42F48072624538BF6345F5
:101CA00007D213F47F0F16D080EA010000F0004045
:101CB000704710B500F0CFF8097EFC3E00F005B883
:101CC00080EA010000F00040704780EA010000F067
:101CD000004000F006B912F47F0F04BF02487047BD
:101CE00080EA010000F0FDB80000C07FC10DD1F115
:101CF0009E0206DB4FEA002343F0004323FA02F082
:101D00007047004207D54FEA4001B1F1FE4F02D2C1
:101D10004FF00000704710B500F09DF84992248004
:101D2000002070476FEA200070470000B0FA80F38F
:101D300010FA03F2C3F19D030AD0D90501EB12207A
:101D4000530638BF704700F1010008BF20F00100C2
:101D5000704700004FF47F0C1CEAD0121EBF1CEA33
:101D6000D11392EA0C0F93EA0C0F00F0478090EA2F
:101D7000010F48BF42F480724FF0004C4CEA002043
:101D80004CEA012102EB0302A0FB0113A2F50002C1
:101D9000002918BF43F001035B0028BF4FEA33035B
:101DA00042EB22425FEA132C4CEBC2502EBFBCEB3D
:101DB000436FB2F57C0F70474FEA036CBCF1004FE4
:101DC00008BF20F00100B2F57C0F38BF70470BD57B
:101DD00082F0FF0212F5803FC8BF704700F1C0409B
:101DE000D8BF00F00040704700F5000C5FEA4C0CD3
:101DF00048BF7047B0F1C04000F073B890EA010FDF
:101E00000CEAD11348BF42F48072624538BF634583
:101E100004D280EA010000F00040704710B500F0E5
:101E20001AF800BF8900013E00F007B800F009B8B9
:101E30005FEA410C5FEA1C6C08D080EA010000F008
:101E400050B85FEA400C5FEA1C6CF6D14FF00040DE
:101E5000A0F5800070470EF1020E2EF0030E5EF822
:101E6000044B244204D44FEA4102B2F17F4F11D80F
:101E70004FEA4003B3F17F4F0CD80ED14FEAD07C2C
:101E8000B2F17F4F0CEB4C0C0CF1020C08BF4CEB89
:101E9000D17C04E04FF0080C01E04FEAD17C0CEB60
:101EA0004C0324FA03F404F00704B4F1040C06D242
:101EB0000EEB840CBDE810404CF0010C6047DFE8ED
:101EC0000CF0070802024FF00040A0F5800010BDA2
:101ED0000846420018BFD2F1807288BF00F000406F
:101EE00010BDFF2141EAD050C005704780F000408E
:101EF00090EA010F7FF5DDAD81F0004100F007B8F9
:101F000090EA010F48BF81F000413FF5D2AD421A7F
:101F100004D882F00042A0EB020011444FEAD052F4
:101F20004FF07F4C1CEA410FA2EBD15318BF9CEA43
:101F3000026F4AD04FF0004C4CEA00204CEA0121DD
:101F400021FA03FCB0EB0C0C0FD412F0FE0F36D0CC
:101F50005FEA4C001DD5001240EBC25038BF7047FD
:101F60001CF03F0F18BF70470BE0A2F101025FEABF
:101F70001C2040EBC25038BF70471CF07F0F18BFC9
:101F80007047C3F12003994014BF401E20F00100A8
:101F9000704780084FEA122308BF7047B0FA80FCF0
:101FA000A2EB0C02CCF1280C60FA0CF093EA122F91
:101FB00004BF00EBC25070474FEAC3707047130A6A
:101FC0005FEADC1008BF7047F6E79CEA026F04D0B6
:101FD00010EA5C0F08BF0020704710B5FFF73BFF09
:101FE00040DFF63E81F00040704700000C20000802
:101FF000000000205C0000002801000868200008A4
:102000005C0000202C4B0000440100080000000090
:1020100000000000000000000000000000000000C0
:1020200000000000000000000000000000000000B0
:1020300000000000000000000000000000000000A0
:102040000000000000000000000000000000000090
:1020500000000000F843000000000000AAAAAAAA9D
:08206000000000000000000078
:04000005080000ED02
:00000001FF
